:10002600000102030405060708090A0B0C0D0E0F52
:10003600FFFF7FFFFFFF7FFFFDFF7FDFFDFF7FDF0E
:10004600FC00001FFFFFFFFFFF07FEFFFFDFF2FFC1
:10005600FFDFFAFFFFDFFEFFFFDFF6FFF000F2FF34
:10006600FF0FFEFFFE47800FFCD3FEFFFFFFFFFFE3
:10007600F9DBFEFFF3DFFEFFF7DFFEFFFFDFFEFF2C
:10008600FFDF7EFFFFDF7EFFFFDF7EFFFFFF7FFFDD
:10009600FC00001FFFFC9FFFFFF9CFFFFFF3E7FF08
:1000A600FFE7F3FFFFCFF9FFF81FFC0FFFFFFFFF8E
:1000B600FFFFFFFFFFFFFFFFFFFFFFFFFFFFFFFF4A
:1000C600FFFFFFFFFFFFFFFFF87FFE1FF33FFCCFA1
:1000D600E79FF9E7CFCFF3F3DFEFF7FBFFFFFFFF74
:1000E600FFFFFFFFFFFFFFFFFFFFFFFFFFFFFFFF1A
:1000F600FFFFFFFFFFFFFFFFFFFFFFFFFFFFFFFF0A
:10010600FFFFFFFFFFFFFF3FFFFFFE1FFFFFFC1F7D
:10011600FDFFF81FFCFFF83FFE7FF03FFF0000FFEA
:10012600FFFFFFFFFFFFFFFFFFFFFFFFFFFFFFFFD9
:10013600FFFFFFFFFFFFFFFFFFFFFFFFFFFFFFFFC9
:10014600FFFFFFFFFFFFFFFFFC3FFC7FF9BFF17FD3
:10015600E03FE03FE19FE6FFFA9FE13FE31FE8BF94
:10016600F31FE6BFF03FE07FFFFFFFFFFFFFFFFF4C
:10017600FFFFFFFFFFFFFFFFFFFFFFFFFFFFFFFF89
:10018600FFFFFFFFFFFFFFFFFFFFFFFFFFFFFFFF79
:10019600FFFFFFFFFFF01FFFFFE00FFFFFCFE7FFAF
:1001A600FF9FF3FFFFFFFFFFFFFFFFFFFFFFFFFFC5
:1001B600FFFFFFFFFFFFFFFFFFFFFFFFFFFFFFFF49
:1001C600FFFFFFFFFFFFFFFFE7FFFFE7F3FFFFCFA5
:1001D600F9FFFF9FFCFFFF3FFE7FFE7FFF3FFCFF17
:1001E600FF9FF9FFFFCFF3FF800FF001FFFFFFFF37
:1001F600FFFFFFFFFFFFFFFFFFFFFFFFFFFFFFFF09
:10020600FFFFFFFFFFFFFFFFFFFFFFFFFFFFFFFFF8
:10021600FFFFFFFFFFF00FFFFFE007FFFFCFF3FF3A
:10022600FF9FF9FFFF9FF9FFFFFFFFFFFFFFFFFFA4
:10023600FFFFFFFFFFFFFFFFFFFFFFFFFFFFFFFFC8
:10024600FFFFFFFFFFFFFFFFFFFFFFFFFFFFFFFFB8
:10025600F83FFC1FF79FF9CFEFCFF3E7CFE7F7F3B0
:10026600DFF7EFFBFFFFFFFFFFFFFFFFFFFFFFFFD4
:10027600FFFFFFFFFFFFFFFFFFFFFFFFFFFFFFFF88
:10028600FFFFFFFFFFFFFFFFFFFFFFFFFFFFFFFF78
:10029600FFFFFFFFFFF007FFFFF557FFFFF557FFD3
:1002A600FFF557FFFFF80FFFFFFFFFFFFFFFFFFF01
:1002B600FFFFFFFFFFFFFFFFFF0FFE1FFE27FC4FA5
:1002C600FC73F8E7FCCBF997FDDBFB27FDB3FB6777
:1002D600FDB7FB6FFD87FB0FFCFFF9FFFE07FC0F69
:1002E600FFFFFFFFFFFFFFFFFFFFFFFFFFFFFFFF18
:1002F600FFFFFFFFFFFFFFFFFFFFFFFFFFFFFFFF08
:10030600FFFFFFFFFFFFFFFFFFFFFFFFFFFE1FFFD8
:10031600FFFEDFFFFFFEDFFFFFFE1FFFFFFFFFFF0A
:10032600FFFFFFFFFFFFFFFFFFFFFFFFFFFFFFFFD7
:10033600FFFFFFFFFFFFFFFFFFFFFFFFFFFFFFFFC7
:10034600FC7FFE3FF83FFC07E39FF9E7E7CFF3F3B7
:10035600CFEFF7FBCFE7E7FBDFF7EFFFFFFFFFFF8F
:10036600FFFFFFFFFFFFFFFFFFFFFFFFFFFFFFFF97
:10037600FFFFFFFFFFFFFFFFFFFFFFFFFFFFFFFF87
:10038600FFFFFFFFF9FFFF9FFCFFFF1FFE7FFC3F04
:10039600FF3FF0FFFF8003FFFFE00FFFFFFFFFFFC0
:1003A600FFFFFFFFFFFFFFFFFFFFFFFFFFFFFFFF57
:1003B600FFFFFFFFFFFFFFFFFFFFFFFFC000000380
:1003C600DFFFFFFBDFFFFFFBDFFFFFFBDFFFFFFBC7
:1003D600DFDFFBFBDFBFFDFBDF7FFEFBDEFFFF7B1F
:1003E600DDFFFFBBDBFFFFDBD7FFFFEBDFFFFFFB25
:1003F600DFFE7FFBDFFE7FFBDFFFFFFBDFFFFFFB99
:10040600DFFFFFFBDFFFFFFBDFFFFFFBDFE007FB9D
:10041600DFEFF7FBDFEFF7FBDFEFF7FBDFE007FBD5
:10042600DFFFFFFBC0000003FFFFFFFFFFFFFFFF33
:10043600FFFFFFFFFFFFFFFFFFFFFFFFFFFFFFFFC6
:10044600FFFFFFFFFFFFFFFFFE3FFFFFFC1FFFFF5A
:10045600FBEFFFCFF3E7FF3FF367FCFFF3E7F3FFA5
:10046600FBEFFFFFFC1FFFFFFE3FFFFFFFFFFFFF4E
:10047600FFFFFFFFFFFE7FFFFFFE7FFFFFFFFFFF88
:10048600FFFFFFFFFFFFFFFFFE7FFE7FFF3FFCFF3B
:10049600FF8FF9FFFFE007FFFFFFFFFFFFFFFFFFF3
:1004A600FFFFFFFFFFFFFFFFFFFFFFFFFFFFFFFF56
:1004B600FFFFFFFFFFFFFFFFFFFFFFFFFFFFFFFF46
:1004C600FFFFFFFFFFFFFFFFFFFFFFFFFE0FF07FB6
:1004D600FEEFF77FFEEFF77FF0EFF70FF76FF6EF20
:1004E600F7EFF7EFF7EFF7EFF00FF00FFFFFFFFF74
:1004F600FFFFFFFFFFFE7FFFFFFE7FFFFFFFFFFF08
:10050600FFFFFFFFFFFFFFFFFFFFFFFFFFFFFFFFF5
:10051600FFC003FFFFBFFDFFFF7FFEFFFFFFFFFFE3
:10052600FFFFFFFFFFFFFFFFFFFFFFFFFFFFFFFFD5
:10053600FFFFFFFFFFFFFFFFFFFFFFFFFFFFFFFFC5
:10054600FFFFFFFFE7CFF3E7DBB7EDDBDD77EEBBC2
:10055600DEF7EF7BDFF7EFFBEFEFF7F7F7DFFBEF0A
:10056600FBBFFDDFFC7FFE3FFFFFFFFFFFFFFFFF3F
:10057600FFFFFFFFFFFE7FFFFFFE7FFFFFFFFFFF87
:10058600FFFFFFFFFFFFFFFFFFFFFFFFFF7FFEFFF6
:10059600FFBFFDFFFFDFFBFFFFE007FFFFFFFFFFE2
:1005A600FFFFFFFFFFFFFFFFFFFFFFFFFFFFFFFF55
:1005B600FFFFFFFFFFFFFFFFFFFFFFFFFFFFFFFF45
:1005C600FFFFFFFFFFFFFFFFC3FFFF83F47FFE6F09
:1005D600F78FF1EFF6F7EF6FF673CE6FF7F7EFEFF2
:1005E600FBCFF3DFFC3FFC3FFFFFFFFFFFFFFFFFFB
:1005F600FFFFFFFFFFFE7FFFFFFE7FFFFFFFFFFF07
:10060600FFFFFFFFFFFFFFFFFFFFFFFFFFBFFDFF36
:10061600FF4002FFFF6B56FFFF8001FFFFFFFFFF5A
:10062600FFFFFFFFFFFFFFFFFFFFFFFFFFFFFFFFD4
:10063600FFFFFFFFFFFFFFFFFFFFFFFFFFC1F9FF08
:10064600FF80F1EFFF0C21E7FE3E03C7FE7F0F8F11
:10065600FFFE301FFFFC703FFFF8F87FFFF9FFFF3A
:10066600FFF9FFFFFFF9FFFFFFF8FFFFFFFFFFFFA7
:10067600FFFC7FFFFFF63FFFFFE73FFFFFE79FFF20
:10068600FFC79FFFFFCF3FFFFF8E3FFFFF9C7FFF10
:10069600FF387FFFFE30FFFFFC63FFFFF8F7FFFF29
:1006A600F1FFFFFFF3FFFFFFF7FFFFFFFFFFFFFF76
:1006B600FFFFFFFFFFFF8FFFFFFF8FFFFFFFCFFF54
:1006C600FFF19FFFFF801FDFFF1F079FFFFF001F38
:1006D600FFFF383FFFFE3FFFFFFE7FFFFFFE7FFF6E
:1006E600FFFCFFFFF3F89FFFF0F18FFFFFFFFFFF17
:1006F600F803C7FFFE07E7FFFFFFE3FFFFFFF3FF78
:10070600FFFFF3FFFFFFF7FFFFFFE7FFFFFFE7FF37
:10071600FFF3CFFFFFE1CFFFFFE19FFFFFF39FFF57
:10072600FFFFFFFFFFFFFFFFFFFFFFFFFFFFFFFFD3
:10073600FFFFFFFFE7FFFFCFE7FFFFCFE7FFFFCF9B
:10074600E000000FF13FF91FF33FFB9FF39CF39F7F
:10075600F39C739FF39C739FFFCE67FFFFC647FF13
:10076600FFE00FFFFFFC3FFFFFFE7FFFFFFFFFFFE6
:10077600FFFE7FFFFFFEFFFFFFFCFFFFFFFCDFFF2B
:10078600FFF881FFFFF1F0FFFFC3FC7FFF8FFE7FC5
:10079600FE1FFE7FFC7FFE7FF8FFFE7FF1FFFE7FE0
:1007A600E3FFFE7FFFFFFF7FFFFFFFFFFFFFFFFF70
:1007B600FFFFFFFFFFFFE3FFFE7FDBFFFE7FDDFFA7
:1007C600FFFFDDFFFFFFEBFFFFFFF3FFFFFFFBFF79
:1007D600FE7F39FFFF1F3DFFFF867CFFFFE07CFFAA
:1007E600FFF808FFFFFE01FFFFFEFFFFFFFFFFFF11
:1007F600FFFEFFFFFFFCFFFFFFF8FFFFFFE1FFFF2C
:10080600FF867FFFFF9E7FFFFF3F3FFFFF7F3FFF8C
:10081600FE7F9FFFFE7FCFFFFE7FE7FFFE7FF1FF9C
:10082600FE7FF87FFFFFFE7FFFFFFFFFFFFFFFFF5B
:10083600FFFF3FFFFFFE3FFFFFFE3FFFFC7F1FFF67
:10084600FC3F8FFFFC3F07FFFE0003FFFFE071FF49
:10085600FBFFF0FFFFFFE0FFFFFF84FFFF380CFF09
:10086600FE003E7FFF01FC7FFFFFCCFFFFFFFFFF87
:10087600FFFF0CFFFFFE18FFFFFC39FFFFF8F9FF33
:10088600FFF1F1FFFFE3F1FFFFE7F1FFFFC7F9FF1C
:10089600FF8FF9FFFF9FF8FFFF1FFC7FFF3FFE7FE3
:1008A600FF3FFE3FFF3FFF1FFFFFFF9FFFFFFFFFD3
:1008B600FFFFFFFFFFFFFFFFFFF81FFFFFE003FF44
:1008C600FF8FF1FFFF3FFCFFFE7FFE7FFCE01F3F37
:1008D600FCE007BFF9E3C39FF9E3E3DFFBE3F3CFF4
:1008E600F3E3E3CFF3E3C7CFF3E00FEFFFFFFFFF41
:1008F600F3E31FEFF3E38FCFF3E38FCFFBE3CFCF2A
:10090600F9E3C7DFF9E3E79FFCE3E33FFE7FFF3F41
:10091600FE3FFC7FFF9FF8FFFFC3E3FFFFF007FFEB
:10092600FFFFFFFFFFFFFFFFFFFFFFFFFFFFFFFFD1
:10093600FFFFFFFFFFE007FFFF8001FFFE04307FA0
:10094600FC0C703FF88A401FF040030FF040400F48
:10095600E000E007E403E037C00FE05BC43FC043BC
:10096600C07F8003C0780003D0E07E03FFFFFFFF57
:10097600D0CCFE0BD0DEFC0BD04DFC0BC837FC1BDD
:10098600C81DFC13EC01F817E403F027F41FE06F11
:10099600FB00008FF980019FFCE0023FFF381C7FBF
:1009A600FF83E1FFFFE007FFFFFFFFFFFFFFFFFF02
:1009B600FFFFFFFFFFFFFFFFFFFFFFFFFFFFFFFF41
:1009C600FFFFFFFFFE3FFC7FFCDFFB3FF9EFF79FDA
:1009D600F3F7EFCFFFFFFFFFFFFFFFFFFFFFFFFF75
:1009E600FC7FFE3FFFFFFFFFFE7FFE7FFFFFFFFF57
:1009F600FFFE7FFFFC3E7C3FFFFFFFFFFFFFFFFF89
:100A0600FFFFFFFFFFFFFFFFFFFFFFFFFFF7EFFF08
:100A1600FFF3CFFFFFF99FFFFFFC3FFFFFFFFFFF45
:100A2600FFFFFFFFFFFFFFFFFFFFFFFFFFFFFFFFD0
:100A3600FFFFFFFFFFFFFFFFFFFFFFFFFFFFFFFFC0
:100A4600FFFFFFFFFFDFFFDFFFEFFFEFE007E0073E
:100A5600FFEFFFEFFFDFFFDFFFFFFFFFFFFFFFFF00
:100A6600FFFFFFFFFFFFFFFFFFFE7FFFFFFFFFFF11
:100A7600FFFE7FFFFFFFFFFFFFFFFFFFFFFFFFFF01
:100A8600FFFFFFFFFFFFFFFFFFFFFFFFFFF00FFF6F
:100A9600FFEFF7FFFFDFFBFFFFBFFDFFFFFFFFFFDE
:100AA600FFFFFFFFFFFFFFFFFFFFFFFFFFFFFFFF50
:100FA200E50893FFE50993FD120FB5E50A93FFE506
:030FB2000B93FDA1
:100FB500C2A6E4FBFAC2A4EF30E704D2A78002C2BE
:100FC500A7D2A4EF25E0FF0BBB00010AEB64084A9A
:100FD50070E3AF05E4FAFBC2A4EF30E704D2A780C3
:100FE50002C2A7D2A4EF25E0FF0BBB00010AEB6408
:060FF500084A70E3D2A6D9
:010FFB0022D3
:10104F00C2A6E4FBFAC2A4EF30E704D2A58002C225
:10105F00A5D2A4EF25E0FF0BBB00010AEB64084A01
:10106F0070E3AF05E4FAFBC2A4EF30E704D2A5802A
:10107F0002C2A5D2A4EF25E0FF0BBB00010AEB646F
:06108F00084A70E3D2A63E
:011095002238
:100FFC00E990002693F590E925E025E0F50804F545
:10100C000904F50A04F50BE5089000F693FFE509D1
:10101C0093FD120FB5E50A93FFE50B93FD120FB587
:10102C001210489000B6E50893FFE50993FD1210E5
:0C103C004FE50A93FFE50B93FD12104FE7
:07104800D2A30000C2A322A5
:03002300020003D5
:10000300C0D075D000C007309809C298AF99750C5D
:10001300008F0D850D993099FDC299D007D0D0324C
:100AB600758920758DFD758BFDD29FD29ED29CD2F5
:100AC6008ED2AFD2ACAF99750C008F0DE50C6003DA
:100AD600020F91E50DB415004003020F91900AEA4A
:100AE600F8282873020B29020B5A020B6B020BA182
:100AF600020BD9020C11020C49020C81020CB9023C
:100B06000CF1020D29020D61020D99020DD1020EA2
:100B160009020E41020E79020EB1020EE9020F2100
:100B2600020F59E4F9E9C39410509AE9900026930C
:100B3600F590E925E025E0F50804F50904F50A0431
:100B4600F50B900076120FA2121048900036121084
:100B5600320980D1E4F9E9C394104003020ACB12AA
:100B66000FFC0980F1E4F9E9C394104003020ACBB3
:100B7600E990002693F590E925E025E0F50804F5CF
:100B86000904F50A04F50B900176120FA21210481B
:100B9600E5089001361210340980CCE4F9E9C394D3
:100BA600104003020ACBE990002693F590E925E070
:100BB60025E0F50804F50904F50A04F50BE50890A7
:100BC60001F6120FA4121048E5089001B61210346F
:100BD6000980CAE4F9E9C394104003020ACBE990FC
:100BE600002693F590E925E025E0F50804F50904CB
:100BF600F50A04F50BE508900276120FA4121048C8
:100C0600E5089002361210340980CAE4F9E9C39463
:100C1600104003020ACBE990002693F590E925E0FF
:100C260025E0F50804F50904F50A04F50BE5089036
:100C360002F6120FA4121048E5089002B6121034FC
:100C46000980CAE4F9E9C394104003020ACBE9908B
:100C5600002693F590E925E025E0F50804F509045A
:100C6600F50A04F50BE508900376120FA412104856
:100C7600E5089003361210340980CAE4F9E9C394F2
:100C8600104003020ACBE990002693F590E925E08F
:100C960025E0F50804F50904F50A04F50BE50890C6
:100CA60003F6120FA4121048E5089003B61210348A
:100CB6000980CAE4F9E9C394104003020ACBE9901B
:100CC600002693F590E925E025E0F50804F50904EA
:100CD600F50A04F50BE508900476120FA4121048E5
:100CE600E5089004361210340980CAE4F9E9C39481
:100CF600104003020ACBE990002693F590E925E01F
:100D060025E0F50804F50904F50A04F50BE5089055
:100D160004F6120FA4121048E5089004B612103417
:100D26000980CAE4F9E9C394104003020ACBE990AA
:100D3600002693F590E925E025E0F50804F5090479
:100D4600F50A04F50BE508900576120FA412104873
:100D5600E5089005361210340980CAE4F9E9C3940F
:100D6600104003020ACBE990002693F590E925E0AE
:100D760025E0F50804F50904F50A04F50BE50890E5
:100D860005F6120FA4121048E5089005B6121034A5
:100D96000980CAE4F9E9C394104003020ACBE9903A
:100DA600002693F590E925E025E0F50804F5090409
:100DB600F50A04F50BE508900676120FA412104802
:100DC600E5089006361210340980CAE4F9E9C3949E
:100DD600104003020ACBE990002693F590E925E03E
:100DE60025E0F50804F50904F50A04F50BE5089075
:100DF60006F6120FA4121048E5089006B612103433
:100E06000980CAE4F9E9C394104003020ACBE990C9
:100E1600002693F590E925E025E0F50804F5090498
:100E2600F50A04F50BE508900776120FA412104890
:100E3600E5089007361210340980CAE4F9E9C3942C
:100E4600104003020ACBE990002693F590E925E0CD
:100E560025E0F50804F50904F50A04F50BE5089004
:100E660007F6120FA4121048E5089007B6121034C0
:100E76000980CAE4F9E9C394104003020ACBE99059
:100E8600002693F590E925E025E0F50804F5090428
:100E9600F50A04F50BE508900876120FA41210481F
:100EA600E5089008361210340980CAE4F9E9C394BB
:100EB600104003020ACBE990002693F590E925E05D
:100EC60025E0F50804F50904F50A04F50BE5089094
:100ED60008F6120FA4121048E5089008B61210344E
:100EE6000980CAE4F9E9C394104003020ACBE990E9
:100EF600002693F590E925E025E0F50804F50904B8
:100F0600F50A04F50BE508900976120FA4121048AD
:100F1600E5089009361210340980CAE4F9E9C39449
:100F2600104003020ACBE990002693F590E925E0EC
:100F360025E0F50804F50904F50A04F50BE5089023
:100F460009F6120FA4121048E5089009B6121034DB
:100F56000980CAE4F9E9C394104003020ACBE99078
:100F6600002693F590E925E025E0F50804F5090447
:100F7600F50A04F50BE508900A76120FA41210483C
:100F8600E508900A361210340980CAE4F9E9C394D8
:0C0F9600104003020ACB120FFC0980F18E
:0300000002109655
:0C109600787FE4F6D8FD75810D020AB6E3
:00000001FF
