:0600030001080A010A00D9
:0A014000E4FEEEC39F50030E80F8AA
:01014A002292
:10010200758921C29FD29ED29C75B810758CFF75DD
:100112008A9C758DFD758BFDD28CD2A9D28ED2AB05
:03012200D2AC223A
:1000B200E4F590120102D2AFE509C39508503CE580
:1000C2000A14601214601414601614601824047068
:1000D20017E4F5908012759005800D75900A8008DE
:1000E20075900980037590067F021201401508E59C
:1000F20008C3940A50C275080A80BDE4F59080B81E
:0300230002000ECA
:0C000E0030980885990A75081EC29832C7
:03000B00020125CA
:10012500C0E0C0D0758CFF758A9C0509E509D3949C
:0B013500644003750900D0D0D0E03218
:03000000020026D5
:0C002600787FE4F6D8FD75810A02006DB9
:100032000200B2E493A3F8E493A34003F68001F232
:1000420008DFF48029E493A3F85407240CC8C333CF
:10005200C4540F4420C8834004F456800146F6DF9E
:10006200E4800B0102040810204080900003E47E2B
:10007200019360BCA3FF543F30E509541FFEE49393
:10008200A360010ECF54C025E060A840B8E493A35A
:10009200FAE493A3F8E493A3C8C582C8CAC583CA85
:1000A200F0A3C8C582C8CAC583CADFE9DEE780BE3D
:0100090000F6
:00000001FF
